:020000040800F2
:100000000050002089130008791000087B100008B8
:100010007D1000087F10000881100008000000001B
:100020000000000000000000000000008310000835
:1000300085100008000000008710000889100008E3
:10004000D1130008D1130008D1130008D113000800
:10005000D1130008D1130008D1130008D1130008F0
:10006000D1130008D1130008D11300089110000823
:10007000A1100008D1130008D1130008D113000803
:10008000D1130008D1130008D1130008D1130008C0
:10009000D1130008D1130008D1130008D1130008B0
:1000A000D1130008D1130008D1130008D1130008A0
:1000B000D1130008D1130008D1130008D113000890
:1000C000D1130008D1130008D1130008D113000880
:1000D000D1130008D1130008D1130008B110000893
:1000E000D1130008D1130008D1130008000000004C
:1000F0000000000000000000000000000000000000
:0C01000000000000000000005FF808F1A3
:1001100010B5054C237833B9044B13B10448AFF341
:1001200000800123237010BD74080020000000002F
:10013000885B000808B5034B1BB103490348AFF3C4
:10014000008008BD0000000078080020885B0008DF
:1001500081F0004102E000BF83F0004330B54FEA78
:1001600041044FEA430594EA050F08BF90EA020FE5
:100170001FBF54EA000C55EA020C7FEA645C7FEA78
:10018000655C00F0E2804FEA5454D4EB5555B8BF9B
:100190006D420CDD2C4480EA020281EA030382EA0C
:1001A000000083EA010180EA020281EA0303362D9E
:1001B00088BF30BD11F0004F4FEA01314FF4801C71
:1001C0004CEA113102D0404261EB410113F0004F83
:1001D0004FEA03334CEA133302D0524263EB43033A
:1001E00094EA050F00F0A780A4F10104D5F1200ED8
:1001F0000DDB02FA0EFC22FA05F2801841F1000133
:1002000003FA0EF2801843FA05F359410EE0A5F106
:1002100020050EF1200E012A03FA0EFC28BF4CF037
:10022000020C43FA05F3C01851EBE37101F00045ED
:1002300007D54FF0000EDCF1000C7EEB00006EEBFA
:100240000101B1F5801F1BD3B1F5001F0CD3490884
:100250005FEA30004FEA3C0C04F101044FEA4452DB
:1002600012F5800F80F09A80BCF1004F08BF5FEA62
:10027000500C50F1000041EB045141EA050130BD42
:100280005FEA4C0C404141EB0101013C28BFB1F554
:10029000801FE9D291F0000F04BF01460020B1FA9F
:1002A00081F308BF2033A3F10B03B3F120020CDA72
:1002B0000C3208DD02F1140CC2F10C0201FA0CF050
:1002C00021FA02F10CE002F11402D8BFC2F1200CB5
:1002D00001FA02F120FA0CFCDCBF41EA0C0190406B
:1002E000E41AA2BF01EB0451294330BD6FEA0404B4
:1002F0001F3C1CDA0C340EDC04F11404C4F120029F
:1003000020FA04F001FA02F340EA030021FA04F3B0
:1003100045EA030130BDC4F10C04C4F1200220FA07
:1003200002F001FA04F340EA0300294630BD21FA45
:1003300004F0294630BD94F0000F83F4801306BF0B
:1003400081F480110134013D4EE77FEA645C18BFFF
:100350007FEA655C29D094EA050F08BF90EA020F96
:1003600005D054EA000C04BF1946104630BD91EA8E
:10037000030F1EBF0021002030BD5FEA545C05D191
:100380004000494128BF41F0004130BD14F58004D0
:100390003CBF01F5801130BD01F0004545F0FE4144
:1003A00041F470014FF0000030BD7FEA645C1ABF79
:1003B000194610467FEA655C1CBF0B46024650EAB0
:1003C000013406BF52EA033591EA030F41F40021DC
:1003D00030BD00BF90F0000F04BF0021704730B562
:1003E0004FF4806404F132044FF000054FF0000137
:1003F00050E700BF90F0000F04BF0021704730B5F8
:100400004FF4806404F1320410F0004548BF4042CC
:100410004FF000013EE700BF42004FEAE2014FEA21
:1004200031014FEA02701FBF12F07F4393F07F4FFC
:1004300081F06051704732F07F4208BF704793F0FF
:100440007F4F04BF41F40021704730B54FF4607412
:1004500001F0004521F000411CE700BF50EA010215
:1004600008BF704730B54FF000050AE050EA0102BE
:1004700008BF704730B511F0004502D5404261EB2E
:1004800041014FF4806404F132045FEA915C3FF46F
:10049000D8AE4FF003025FEADC0C18BF03325FEA0C
:1004A000DC0C18BF033202EBDC02C2F1200300FABD
:1004B00003FC20FA02F001FA03FE40EA0E0021FAE2
:1004C00002F11444BDE600BF4FF0FF3C06E000BF60
:1004D0004FF0010C02E000BF4FF0010C4DF804CDCD
:1004E0004FEA410C7FEA6C5C4FEA430C18BF7FEA8D
:1004F0006C5C1BD001B050EA410C0CBF52EA430CBB
:1005000091EA030F02BF90EA020F0020704710F13A
:10051000000F91EA030F58BF994208BF90422CBFC9
:10052000D8176FEAE37040F0010070474FEA410CC2
:100530007FEA6C5C02D150EA013C07D14FEA430CE0
:100540007FEA6C5CD6D152EA033CD3D05DF8040B51
:10055000704700BF8446104662468C461946634683
:1005600000E000BF01B5FFF7B7FF002848BF10F15A
:10057000000F01BD4DF808EDFFF7F4FF0CBF01209F
:1005800000205DF808FB00BF4DF808EDFFF7EAFF1B
:1005900034BF012000205DF808FB00BF4DF808EDD6
:1005A000FFF7E0FF94BF012000205DF808FB00BFCB
:1005B0004DF808EDFFF7CEFF94BF012000205DF855
:1005C00008FB00BF4DF808EDFFF7C4FF34BF012062
:1005D00000205DF808FB00BF80F0004002E000BF93
:1005E00081F0004142001FBF5FEA410392EA030F1E
:1005F0007FEA226C7FEA236C6AD04FEA1262D2EB68
:100600001363C1BFD218414048404140B8BF5B426C
:10061000192B88BF704710F0004F40F4000020F005
:100620007F4018BF404211F0004F41F4000121F01B
:100630007F4118BF494292EA030F3FD0A2F1010265
:1006400041FA03FC10EB0C00C3F1200301FA03F1A3
:1006500000F0004302D5494260EB4000B0F5000FC6
:1006600013D3B0F1807F06D340084FEA310102F185
:100670000102FE2A51D2B1F1004F40EBC25008BF37
:1006800020F0010040EA03007047490040EB000001
:10069000013A28BFB0F5000FEDD2B0FA80FCACF102
:1006A000080CB2EB0C0200FA0CF0AABF00EBC2502F
:1006B00052421843BCBFD0401843704792F0000F1D
:1006C00081F4000106BF80F400000132013BB5E770
:1006D0004FEA41037FEA226C18BF7FEA236C21D0E6
:1006E00092EA030F04D092F0000F08BF084670474B
:1006F00090EA010F1CBF0020704712F07F4F04D119
:10070000400028BF40F00040704712F100723CBF2B
:1007100000F50000704700F0004343F0FE4040F455
:10072000000070477FEA226216BF08467FEA236313
:100730000146420206BF5FEA412390EA010F40F4FE
:10074000800070474FF0000304E000BF10F000434A
:1007500048BF40425FEA000C08BF704743F0964331
:1007600001464FF000001CE050EA010208BF70474C
:100770004FF000030AE000BF50EA010208BF7047D3
:1007800011F0004302D5404261EB41015FEA010CE8
:1007900002BF84460146002043F0B64308BFA3F1E0
:1007A0008053A3F50003BCFA8CF2083AA3EBC253C2
:1007B00010DB01FA02FC634400FA02FCC2F12002E1
:1007C000BCF1004F20FA02F243EB020008BF20F018
:1007D0000100704702F1200201FA02FCC2F120027E
:1007E00050EA4C0021FA02F243EB020008BF20EA73
:1007F000DC7070474FF0FF0C1CEAD0521EBF1CEAA1
:10080000D15392EA0C0F93EA0C0F6FD01A4480EA8E
:10081000010C400218BF5FEA41211ED04FF0006377
:1008200043EA501043EA5111A0FB01310CF00040A3
:10083000B1F5000F3EBF490041EAD3715B0040EAC9
:10084000010062F17F02FD2A1DD8B3F1004F40EB99
:10085000C25008BF20F00100704790F0000F0CF06C
:10086000004C08BF49024CEA502040EA51207F3A30
:10087000C2BFD2F1FF0340EAC250704740F400000B
:100880004FF00003013A5DDC12F1190FDCBF00F0FC
:1008900000407047C2F10002410021FA02F1C2F1AA
:1008A000200200FA02FC5FEA310040F1000053EA46
:1008B0004C0308BF20EADC70704792F0000F00F094
:1008C000004C02BF400010F4000F013AF9D040EA9A
:1008D0000C0093F0000F01F0004C02BF490011F42E
:1008E000000F013BF9D041EA0C018FE70CEAD1532C
:1008F00092EA0C0F18BF93EA0C0F0AD030F0004CAC
:1009000018BF31F0004CD8D180EA010000F000405F
:10091000704790F0000F17BF90F0004F084691F01D
:10092000000F91F0004F14D092EA0C0F01D1420257
:100930000FD193EA0C0F03D14B0218BF084608D120
:1009400080EA010000F0004040F0FE4040F400006A
:10095000704740F0FE4040F4400070474FF0FF0CFD
:100960001CEAD0521EBF1CEAD15392EA0C0F93EA44
:100970000C0F69D0A2EB030280EA010C49024FEA96
:10098000402037D04FF0805343EA111143EA10134F
:100990000CF000408B4238BF5B0042F17D024FF407
:1009A000000C8B4224BF5B1A40EA0C00B3EB510FE2
:1009B00024BFA3EB510340EA5C00B3EB910F24BFCB
:1009C000A3EB910340EA9C00B3EBD10F24BFA3EB50
:1009D000D10340EADC001B0118BF5FEA1C1CE0D118
:1009E000FD2A3FF650AF8B4240EBC25008BF20F0CB
:1009F000010070470CF0004C4CEA50207F32C2BF1F
:100A0000D2F1FF0340EAC250704740F400004FF0BB
:100A10000003013A37E792F0000F00F0004C02BFEC
:100A2000400010F4000F013AF9D040EA0C0093F0B6
:100A3000000F01F0004C02BF490011F4000F013B10
:100A4000F9D041EA0C0195E70CEAD15392EA0C0F78
:100A500008D142027FF47DAF93EA0C0F7FF470AFB0
:100A6000084676E793EA0C0F04D14B023FF44CAFF3
:100A700008466EE730F0004C18BF31F0004CCAD188
:100A800030F000427FF45CAF31F000437FF43CAFC4
:100A90005FE700BF4FF0FF3C06E000BF4FF0010CE6
:100AA00002E000BF4FF0010C4DF804CD4FEA4002C8
:100AB0004FEA41037FEA226C18BF7FEA236C11D012
:100AC00001B052EA530C18BF90EA010F58BFB2EBC5
:100AD000030088BFC81738BF6FEAE17018BF40F045
:100AE000010070477FEA226C02D15FEA402C05D1F9
:100AF0007FEA236CE4D15FEA412CE1D05DF8040B7E
:100B0000704700BF844608466146FFE70FB5FFF710
:100B1000C9FF002848BF10F1000F0FBD4DF808EDC8
:100B2000FFF7F4FF0CBF012000205DF808FB00BFB9
:100B30004DF808EDFFF7EAFF34BF012000205DF813
:100B400008FB00BF4DF808EDFFF7E0FF94BF012060
:100B500000205DF808FB00BF4DF808EDFFF7D2FF5D
:100B600094BF012000205DF808FB00BF4DF808EDA0
:100B7000FFF7C8FF34BF012000205DF808FB00BF6D
:100B80004FEA4002B2F1FE4F0FD34FF09E03B3EB9A
:100B900012620DD94FEA002343F0004310F0004FDA
:100BA00023FA02F018BF404270474FF00000704730
:100BB00012F1610F01D1420205D110F0004008BFCF
:100BC0006FF0004070474FF00000704700B585B0EF
:100BD00000230193029303931848194A02604FF4CB
:100BE00080728260037303754FF46022C2614360B8
:100BF0000223036100F020FEB0B90023019301231A
:100C000002930723039301A90C4800F06BFC70B911
:100C1000012301930223029301A9084800F062FC1A
:100C200040B905B05DF804FB00F0DEF8E5E700F040
:100C3000DBF8EDE700F0D8F8F3E700BF90080020FC
:100C40000024014010B586B000230293039304935F
:100C5000059302681E4B9A4201D006B010BD0446AF
:100C600003F56C439A6942F400729A619A6902F43E
:100C700000720092009A9A6942F004029A619B699C
:100C800003F004030193019B03230293039302A93E
:100C9000104801F0D7F81048104B03600023436060
:100CA00083608023C3604FF4807303614FF48063DB
:100CB0004361202383614FF40053C36100F042FF7E
:100CC00018B9054B23625C62C7E700F08DF8F8E7BE
:100CD0000024014000080140C00800200800024034
:100CE00000B583B00E4B5A6942F001025A615B694C
:100CF00003F001030193019B002211460B2000F039
:100D0000B1FE0B2000F0E6FE002211460C2000F0A0
:100D1000A9FE0C2000F0DEFE03B05DF804FB00BF6E
:100D200000100240F0B589B00024049405940694A4
:100D30000794294B9A6942F010029A619A6902F06D
:100D400010020092009A9A6942F020029A619A6910
:100D500002F020020192019A9A6942F004029A611B
:100D60009A6902F004020292029A9A6942F0080219
:100D70009A619B6903F008030393039B174F224674
:100D80000121384601F077F9154E22464FF4004113
:100D9000304601F070F94FF4C04304930594069473
:100DA00004A9104801F04EF8012504950595069513
:100DB0000323079304A9384601F044F84FF4004395
:100DC0000493059506940223079304A9304601F085
:100DD00039F809B0F0BD00BF00100240000C01401E
:100DE000000801400010014072B6FEE700B595B062
:100DF000282200210DEB020003F046FE002305939C
:100E00000693079308930993019302930393049322
:100E100001220A924FF480330B930E920222119218
:100E200012934FF4E01313930AA801F041F9C8B9E3
:100E30000F23059302210691002307934FF480624C
:100E40000892099305A801F073FB68B90223019386
:100E50004FF40043039301A801F046FC30B915B0EC
:100E60005DF804FBFFF7C0FFFFF7BEFFFFF7BCFF15
:100E700008B500F0D5FAFFF7B9FFFFF753FFFFF70A
:100E80002FFF00F007FA00F07FF9FFF79FFE00F058
:100E900073F802F0C1FE304C204603F067FD0122DA
:100EA0002E49204602F09BFE03F01CFD2C4C2046F0
:100EB00003F0CEFA0023E361A3600B232360294BE8
:100EC0006361274C204603F0B7FC204603F068FC22
:100ED000204603F017FD204603F02AF8204603F0D1
:100EE0003DF80421204603F00BFB204603F0A2F955
:100EF000204603F0EBF8204603F03BF9204603F0D0
:100F00000FF802221849194800F0D2FBD4F89420B7
:100F1000174B1A60626F5A60626A9A60A26ADA605E
:100F2000626D1A61A2685A6162689A61E269DA6167
:100F3000A2691A620F4D2C469C46BCE80F000FC4F4
:100F4000BCE80F000FC4DCF80030236028222946DB
:100F5000014802F013FCB4E7F80A0020040900205D
:100F60000809002000A27341600B002090080020B7
:100F7000EC0900200000002008B50F480F4B03606B
:100F80004FF482734360002383604FF40062C260B9
:100F90000361012242614FF4007282611022C2613A
:100FA0000362436283620A23C36201F025FD00B934
:100FB00008BDFFF719FFFBE7100A002000300140D1
:100FC00010B586B00023029303930493059302683F
:100FD000164B9A4201D006B010BD03F560439A69E2
:100FE00042F480529A619A6902F480520092009A07
:100FF0009A6942F004029A619B6903F00403019329
:10100000019BA02302930223039303230593084C1F
:1010100002A9204600F016FF402302930023039309
:10102000049302A9204600F00DFFD4E700300140F0
:101030000008014082B00E4B9A6942F001029A61A9
:101040009A6902F001020092009ADA6942F0805235
:10105000DA61DB6903F080530193019B054A536811
:1010600023F0E06343F00073536002B0704700BFA9
:101070000010024000000140FEE7FEE7FEE7FEE749
:10108000FEE770477047704708B500F0DBF908BD10
:1010900008B5024800F034FE08BD00BFC0080020BB
:1010A00008B5024800F02CFE08BD00BFB40A0020BD
:1010B00008B5024802F076FC08BD00BFF80A00201F
:1010C00010B503460C4A0D490D48006840B10C4864
:1010D00000680344521A934206D8094A136010BDAF
:1010E0000748084C0460F2E703F0A4FC0C230360FB
:1010F0004FF0FF30F3E700BF005000200004000075
:10110000680A0020B80B0020704700000268094BF5
:101110009A4200D0704782B003F564439A6942F462
:1011200000629A619B6903F400630193019B02B022
:10113000704700BF002C014000B587B00023029328
:1011400003930493059302680D4B9A4202D007B0B3
:101150005DF804FB03F564439A6942F004029A6166
:101160009B6903F004030193019B4FF4E063029336
:1011700002230393059302A9024800F063FEE6E709
:10118000002C01400008014010B596B000241294D4
:101190001394149415941094119409940A940B9434
:1011A0000C940D940E940F942022214601A803F074
:1011B0006BFC3648364B036044604023836040F646
:1011C0000F63C36004614461846101F0AFFE0028D5
:1011D00044D14FF48053129312A92C4801F0A4FF7C
:1011E00000283ED1294801F0CDFE00283CD1002343
:1011F0001093119310A9254802F080F8002836D1E9
:101200006023099300220A920B920C920D920E9287
:101210000F9209A91D4801F013FF58BB042209A928
:101220001A4801F00DFF40BB082209A9174801F038
:1012300007FF28BB002301930293039304930593B4
:101240004FF400520692089301A9104802F08CF85E
:10125000C8B90E48FFF770FF16B010BDFFF7C4FD08
:10126000B7E7FFF7C1FDBDE7FFF7BEFDBFE7FFF73B
:10127000BBFDC5E7FFF7B8FDD0E7FFF7B5FDD3E746
:10128000FFF7B2FDD6E7FFF7AFFDE2E76C0A0020FB
:10129000002C014008B50A480A4B03604FF4E133C3
:1012A000436000238360C36003610C224261836159
:1012B000C36102F055F900B908BDFFF795FDFBE7E2
:1012C000F80A00200048004070B586B00023029361
:1012D0000393049305930268274B9A4201D006B00A
:1012E00070BD044603F5E433DA6942F48022DA6122
:1012F000DA6902F480220092009A9A6942F00802A8
:101300009A619B6903F008030193019B4FF480638A
:1013100002930223039303230593184E02A9304638
:1013200000F090FD4FF400630293002503950495AF
:1013300002A9304600F086FD1148124B03601023CD
:10134000436085608023C3600561456185614FF41A
:101350000053C36100F0F6FB58B9094B63635C624C
:1013600000221146272000F07DFB272000F0B2FB71
:10137000B5E7FFF739FDF0E700480040000C0140F9
:10138000B40A00201C0002400C480D490D4A0023FD
:1013900002E0D458C4500433C4188C42F9D30A4A2A
:1013A0000A4C002301E013600432A242FBD3FFF792
:1013B000ABFE03F045FBFFF75BFD7047000000202C
:1013C00074080020AC66000874080020B40B0020EC
:1013D000FEE7000010B504460E4B18784FF47A7300
:1013E000B3FBF0F30C4A1068B0FBF3F000F080FBA5
:1013F00068B90F2C01D901200AE0002221464FF0E4
:10140000FF3000F02FFB054B1C60002000E00120A6
:1014100010BD00BF2C00002028000020300000205C
:1014200008B5074A136843F010031360032000F067
:1014300007FB0F20FFF7CEFFFFF7FCFD002008BDE4
:1014400000200240034A1168034B1B780B441360D1
:10145000704700BF3C0B00202C000020014B186897
:10146000704700BF3C0B0020704708B5436A9A6A7A
:1014700012F0500F1ED19A6A42F400729A621A68F2
:10148000926802F46022B2F5602F03D01846FFF78D
:10149000EBFF08BD1A7B002AF8D19A6A22F4807209
:1014A0009A629A6A12F4805FF0D19A6A42F001025D
:1014B0009A62EBE71B6A1B6B9847EAE7704708B52F
:1014C000406AFFF7FBFF08BD704708B5406A836AB2
:1014D00043F040038362C36A43F00403C362FFF72F
:1014E000F3FF08BD30B482B00022019290F82420AE
:1014F000012A00F091800346012280F824204A68E6
:10150000062A2DD80468606B02EB8202053A4FF080
:101510001F0C0CFA02FC20EA0C000D6805FA02F21E
:10152000024362630A68092A3AD91C68E06802EB40
:1015300042021E3A4FF0070C0CFA02FC20EA0C00A3
:101540008D6805FA02F20243E2600A68103A012A45
:1015500036D90020002283F8242002B030BC704726
:101560000C2A0ED80568286B02EB8202233A1F244E
:10157000944020EA04000C6804FA02F202432A6351
:10158000D0E70568E86A02EB8202413A1F249440E2
:1015900020EA04000C6804FA02F20243EA62C1E79E
:1015A0001C68206902EB42024FF0070C0CFA02FCA7
:1015B00020EA0C008D6805FA02F202432261C4E7BA
:1015C0001A681648824205D09A6A42F020029A624E
:1015D0000120BFE7906810F4000F1BD1906840F421
:1015E000000090600A68102A01D00020B2E70C4A7F
:1015F00012680C49A1FB0212920C02EB820252000B
:10160000019202E0019A013A0192019A002AF9D16D
:1016100000209FE700209DE702209EE70024014074
:101620002800002083DE1B4330B583B000230193E4
:1016300003689A6812F0010F33D104469A6842F0A9
:1016400001029A60184B1B68184AA2FB03239B0CEB
:10165000019302E0019B013B0193019B002BF9D117
:10166000FFF7FCFE054623689B6813F0010F16D1B7
:10167000FFF7F4FE431B022BF5D923689B6813F098
:10168000010FF0D1A36A43F01003A362E36A43F0B1
:101690000103E362002384F82430012002E00020EB
:1016A00000E0002003B030BD2800002083DE1B4393
:1016B000F8B504460D46164601684448814259D0A3
:1016C000434B994256D094F82430012B7CD001230F
:1016D00084F824302046FFF7A7FF074600286ED184
:1016E000A16A21F4706121F0010141F48071A162CD
:1016F0002268374B9A4244D0A36A23F48013A36232
:10170000536813F4806F05D0A36A23F4405343F465
:101710008053A362A36A13F4805F48D0E36A23F086
:101720000603E362002384F82430236A294A9A627C
:10173000236A294ADA62236A284A1A6323686FF007
:1017400002021A602268936843F4807393602168F0
:1017500033462A464C31206A00F02AFA23689A68F8
:1017600002F46022B2F5602F24D09A6842F480120D
:101770009A6027E0154B5B6813F4702FA3D0012704
:1017800020E0A3F580635B6813F4702FB4D0A36AE4
:1017900043F48013A3620D4B5B6813F4806FB9D0E0
:1017A000A36A23F4405343F48053A362B2E70023B7
:1017B000E362B7E79A6842F4A0029A6002E000236D
:1017C00084F824303846F8BD0227FBE700240140A6
:1017D000002801406B140008BF140008CB14000857
:1017E00038B503689A6812F0010F01D1002038BDA6
:1017F00004469A6822F001029A60FFF72FFE054620
:1018000023689B6813F0010F13D0FFF727FE431BDB
:10181000022BF5D923689B6813F0010FF0D0A36A5F
:1018200043F01003A362E36A43F00103E362012083
:10183000DDE70020DBE7000000287BD070B5044620
:10184000836A002B4DD02046FFF7CAFFA36A13F02E
:10185000100369D1002867D1A26A22F4885222F0CD
:10186000020242F00202A2626268E1690A43217B3D
:1018700042EA4102A568B5F5807F02D0012D36D03D
:101880001D46267D012E35D02668716821F46941F8
:10189000294371602568AE68274931401143A9602A
:1018A000A168B1F5807F01D0012902D12369013BF4
:1018B0001B052568E96A21F470010B43EB6223687C
:1018C00099681E4B0B409A4225D0A36A23F012035D
:1018D00043F01003A362E36A43F00103E3620120D3
:1018E00027E0C36280F82430FFF7ACF9ABE74FF490
:1018F0008075C6E731B9A169013945EA413141F442
:101900000065C1E7A16A41F02001A162E16A41F0EE
:101910000101E162B8E70023E362A36A23F0030355
:1019200043F00103A36204E0A36A43F01003A3623F
:10193000012070BD01207047FDF7E1FFFE0E1FFF83
:1019400070B582B00023019390F82430012B72D03F
:101950000446012380F82430FFF742FF054628B1F2
:10196000002384F82430284602B070BDA36A23F413
:10197000885323F0020343F00203A3622F4B1E6837
:10198000022000F03DFFB6FBF0F67600019602E083
:10199000019B013B0193019B002BF9D12046FFF7EE
:1019A00043FE2268936843F008039360FFF756FDF7
:1019B000064623689A6812F0080F14D0FFF74EFD10
:1019C000801B0A28F5D923689B6813F0080FF0D014
:1019D000A36A23F0120343F01003A362002384F8E8
:1019E00024300125BFE79A6842F004029A60FFF7AD
:1019F00035FD064623689B6813F0040F14D0FFF7EB
:101A00002DFD801B0A28F5D923689B6813F0040F6D
:101A1000F0D0A36A23F0120343F01003A362002363
:101A200084F8243001259EE7A36A23F0030343F0E2
:101A30000103A36294E7022595E700BF2800002078
:101A4000074AD36823F4E0631B041B0C000200F474
:101A5000E060034343F0BF6343F40033D360704757
:101A600000ED00E000B5194BDB68C3F30223C3F1BE
:101A7000070CBCF1040F28BF4FF0040C03F1040E57
:101A8000BEF1060F18D9033B4FF0FF3E0EFA0CFCD7
:101A900021EA0C0199400EFA03F322EA03031943E9
:101AA00000280BDB0901C9B200F1604000F561407C
:101AB00080F800135DF804FB0023E5E700F00F0059
:101AC0000901C9B2024B1954F4E700BF00ED00E070
:101AD00014ED00E0002807DB00F01F02400901239D
:101AE0009340024A42F82030704700BF00E100E016
:101AF0000138B0F1807F0BD24FF0E0235861054AE6
:101B0000F02182F823100020986107221A617047A3
:101B10000120704700ED00E030B40124056CAC40BA
:101B2000C56B6C60046863604368102B05D0036864
:101B300099600368DA6030BC704703689A60036894
:101B4000D960F8E760B310B402460168154B0B4446
:101B50001548A0FB03031B099B001364134BD363BD
:101B6000022382F82130086820F47F5020F03000F2
:101B7000536894682343D468234314692343546906
:101B8000234394692343D469234303430B60002018
:101B90009063012382F8213082F8200010BC704746
:101BA00001207047F8FFFDBFCDCCCCCC0000024037
:101BB00038B5044690F82000012831D0012084F87F
:101BC000200094F82100012804D0002384F820305C
:101BD000022038BD022084F821000020A06325687F
:101BE000286820F0010028602046FFF795FFE36A8F
:101BF0005BB12268136843F00E0313602268136818
:101C000043F0010313600020E3E72268136823F028
:101C1000040313602268136843F00A031360EDE7BE
:101C20000220D6E790F82130022B06D004238363EC
:101C3000002380F82030012070470268136823F0E9
:101C40000E0313600268136823F001031360036C32
:101C5000C16B012202FA03F34B6080F821200023BC
:101C600080F820301846704708B590F82130022BD4
:101C700003D004238363012008BD0268136823F0A6
:101C80000E0313600268136823F0010313600368F6
:101C9000194A934214D0143293421FD01432934203
:101CA0001ED0143293421ED0143293421ED01432EE
:101CB000934202D04FF0807203E04FF4801200E0B4
:101CC00001220E4B5A60012380F82130002380F856
:101CD0002030436B6BB198470020CDE71022F0E72E
:101CE0004FF48072EDE74FF48052EAE74FF4803210
:101CF000E7E70020C0E700BF080002400000024004
:101D000038B5C36B1A6804682568016C04238B40DE
:101D1000134235D015F0040F32D0236813F0200F92
:101D200003D1236823F0040323600368434A9342EA
:101D300014D01432934218D01432934217D0143274
:101D4000934217D01432934217D01432934202D0E8
:101D50004FF0806203E04FF4800200E00422384B31
:101D60005A60C36A03B1984738BD4022F7E74FF481
:101D70008062F4E74FF48042F1E74FF48022EEE70F
:101D800002238B4013423CD015F0020F39D0236858
:101D900013F0200F06D1236823F00A0323600123E8
:101DA00080F821300368254A934214D014329342BC
:101DB0001CD0143293421BD0143293421BD01432E5
:101DC00093421BD01432934202D04FF0007203E0D2
:101DD0004FF4001200E00222194B5A60002380F8F1
:101DE0002030836A002BBFD09847BDE72022F3E75D
:101DF0004FF40072F0E74FF40052EDE74FF4003279
:101E0000EAE7082303FA01F11142ADD015F0080FFB
:101E1000AAD0236823F00E032360026CC16B012358
:101E200003FA02F24A60836380F82130002380F8CD
:101E30002030036B002B97D0984795E708000240AD
:101E40000000024070B582B00024A446A6E0804D98
:101E5000AA4210D007D97F4DAA420CD005F5803593
:101E6000AA4208D013E0A5F58015AA4203D005F5D3
:101E70007025AA4207D18A68002A58D0012A51D079
:101E80004361082403E0A5F58015AA42F3D0BEF112
:101E9000FF0F4ED80646BEF1FF0F4CD84FEA8C021A
:101EA00033680F25954023EA050304FA02F2134331
:101EB00033604B6813F0805F6ED0674B9A6942F0D5
:101EC00001029A619B6903F001030193019B4FEAB0
:101ED0009C02951C614B53F825600CF003039D0098
:101EE0000F23AB4026EA03065D4B984229D003F549
:101EF0008063984200F08E8003F58063984200F082
:101F00008B8003F58063984219D004231AE0CC68D3
:101F1000BDE7CC680434BAE7CC680834B7E7CC68CE
:101F20000C34B4E703610824B1E70024AFE70424CC
:101F3000ADE7061DAFE7ACF108029200B0E703235E
:101F400000E00023AB4033430232444D45F82230D9
:101F50004B6813F4803F61D0424A136843EA0E0392
:101F600013604B6813F4003F5ED03E4A536843EA67
:101F70000E0353604B6813F4801F5BD0394A93689B
:101F800043EA0E0393604B6813F4001F58D0354AA0
:101F9000D36843EA0E03D3600CF1010C0A6832FAED
:101FA0000CF353D0012303FA0CF302EA030E33EAD5
:101FB0000202F1D14A68122A3FF649AF122A3FF6CF
:101FC00066AF01A555F822F0771E00080F1F000824
:101FD000191F00082B1F00088F1E00088F1E000805
:101FE0008F1E00088F1E00088F1E00088F1E00081D
:101FF0008F1E00088F1E00088F1E00088F1E00080D
:102000008F1E00088F1E00088F1E0008131F000877
:102010001F1F0008012395E7022393E7114A136865
:1020200023EA0E0313609CE70E4A536823EA0E036B
:1020300053609FE70B4A936823EA0E039360A2E77D
:10204000084AD36823EA0E03D360A5E702B070BD47
:10205000000022100000311000100240000001407A
:1020600000080140000401408368194201D00120AA
:102070007047002070470AB101617047090401618F
:102080007047000082B0084B1B68084AA2FB03237C
:102090005B0A00FB03F3019300BF019B5A1E0192F0
:1020A000002BF9D102B0704728000020D34D6210F8
:1020B000002800F0F18170B582B00446036813F087
:1020C000010F2CD0994B5B6803F00C03042B1DD03F
:1020D000964B5B6803F00C03082B12D06368B3F5D2
:1020E000803F41D0002B55D103F1804303F50433E9
:1020F0001A6822F480321A601A6822F480221A6068
:1021000037E08A4B5B6813F4803FE7D0874B1B684E
:1021100013F4003F03D06368002B00F0BF812368F5
:1021200013F0020F75D0814B5B6813F00C0F5FD07A
:102130007E4B5B6803F00C03082B54D02369002B03
:1021400000F08A807A4B01221A60FFF787F9054672
:10215000764B1B6813F0020F75D1FFF77FF9401B18
:102160000228F5D903209EE1704A136843F48033B6
:102170001360636843B3FFF771F905466B4B1B6847
:1021800013F4003FCBD1FFF769F9401B6428F5D960
:10219000032088E1B3F5A02F09D0644B1A6822F41C
:1021A00080321A601A6822F480221A60E1E703F193
:1021B0008043A3F53C331A6842F480221A601A68FF
:1021C00042F480321A60D4E7FFF748F90546574BCE
:1021D0001B6813F4003FA2D0FFF740F9401B6428AE
:1021E000F5D903205FE1514B5B6813F4803FA5D123
:1021F0004E4B1B6813F0020F03D02369012B40F0F4
:102200004F814A4A136823F0F803616943EAC10326
:102210001360236813F0080F33D0A369002B5CD040
:10222000434B0122C3F88024FFF718F905463F4BC2
:102230005B6A13F0020F21D1FFF710F9401B02284F
:10224000F5D903202FE1394A136823F0F8036169B7
:1022500043EAC1031360DCE7354B00221A60FFF745
:10226000FDF80546314B1B6813F0020FD1D0FFF784
:10227000F5F8401B0228F5D9032014E10120FFF7EF
:1022800001FF236813F0040F00F09680274BDB69F1
:1022900013F0805F34D1254BDA6942F08052DA6165
:1022A000DB6903F080530193019B0125214B1B68DF
:1022B00013F4807F26D0E368012B3DD0002B53D14F
:1022C00003F1804303F504331A6A22F001021A6213
:1022D0001A6A22F004021A6233E0154B0022C3F896
:1022E0008024FFF7BBF80546104B5B6A13F0020F22
:1022F000C7D0FFF7B3F8401B0228F5D90320D2E07E
:102300000025D3E70B4A136843F480731360FFF78B
:10231000A5F80646074B1B6813F4807FCBD1FFF767
:102320009DF8801B6428F5D90320BCE00010024012
:1023300000004242007000405F4A136A43F001030C
:102340001362E36833B3FFF789F806465A4B1B6AFA
:1023500013F0020F2FD1FFF781F8801B41F2883371
:102360009842F3D903209EE0052B09D0524B1A6AFC
:1023700022F001021A621A6A22F004021A62E0E7ED
:102380004D4B1A6A42F004021A621A6A42F00102C4
:102390001A62D6E7FFF762F80646474B1B6A13F04E
:1023A000020F08D0FFF75AF8801B41F28833984299
:1023B000F3D9032077E0E5B9E369002B72D03E4AF8
:1023C000526802F00C02082A56D0022B17D03B4B61
:1023D00000221A66FFF742F80446374B1B6813F0D9
:1023E000007F47D0FFF73AF8001B0228F5D90320F9
:1023F00059E0314AD36923F08053D361DCE72F4B96
:1024000000221A66FFF72AF805462B4B1B6813F0CB
:10241000007F06D0FFF722F8401B0228F5D90320E1
:1024200041E0236AB3F5803F1AD023494B6823F477
:102430007413226A606A024313434B601F4B0122EC
:102440001A66FFF70BF804461B4B1B6813F0007F5E
:102450000ED1FFF703F8001B0228F5D9032022E074
:10246000154A536823F40033A1680B435360DCE73B
:10247000002018E0002016E0012B16D00E4B5B6800
:1024800003F48031226A914211D103F47013626A1D
:1024900093420ED1002006E001207047012002E0A7
:1024A000012000E0002002B070BD0120FBE7012008
:1024B000F9E70120F7E700BF0010024000004242A8
:1024C00086B0174B0FCB0DF1180C0CE90F0040F242
:1024D0000123ADF80430134B5B6803F00C02082AAB
:1024E00002D0114806B07047C3F3834218326A44E1
:1024F00012F8100C13F4803F0DD00A4B5B68C3F345
:10250000404318336B4413F8143C074A02FB00F0B5
:10251000B0FBF3F0E6E7054B03FB00F0E2E700BF9A
:10252000886600080010024000127A0000093D0091
:10253000002800F0A08070B50D460446524B1B6881
:1025400003F007038B420BD24F4A136823F00703B3
:102550000B431360136803F007038B4240F08D8038
:10256000236813F0020F17D013F0040F04D0474A6A
:10257000536843F4E0635360236813F0080F04D0FA
:10258000424A536843F460535360404A536823F00F
:10259000F003A1680B435360236813F0010F31D09F
:1025A0006368012B20D0022B25D0384A126812F024
:1025B000020F64D035494A6822F0030213434B608E
:1025C000FEF74CFF0646314B5B6803F00C03626874
:1025D000B3EB820F16D0FEF741FF801B41F2883328
:1025E0009842F0D9032045E0284A126812F4003FCF
:1025F000E0D101203EE0254A126812F0007FD9D1D7
:10260000012037E0204B1B6803F00703AB420AD9D7
:102610001D4A136823F007032B431360136803F06C
:102620000703AB422DD1236813F0040F06D0174ADD
:10263000536823F4E063E1680B435360236813F0AD
:10264000080F07D0114A536823F46053216943EA05
:10265000C1035360FFF734FF0C4B5B68C3F30313F4
:102660000B4AD35CD8400B4B18600B4B1868FEF735
:10267000B1FE002070BD012070470120FAE7012063
:10268000F8E70120F6E700BF0020024000100240FA
:10269000706600082800002030000020014B1868F8
:1026A000704700BF2800002008B5FFF7F7FF044B74
:1026B0005B68C3F30223034AD35CD84008BD00BF64
:1026C000001002408066000808B5FFF7E7FF044BE2
:1026D0005B68C3F3C223034AD35CD84008BD00BF84
:1026E000001002408066000870B582B0044603689E
:1026F00013F0010F36D03F4BDB6913F0805F49D1F7
:102700003C4BDA6942F08052DA61DB6903F08053B6
:102710000193019B0125384B1B6813F4807F3BD04C
:10272000344B1B6A13F4407313D0626802F4407296
:102730009A420ED02F4A136A23F440702F49012683
:10274000C1F840640026C1F84064106213F0010F24
:1027500036D1284A136A23F4407361680B4313622D
:10276000002D3ED1236813F0020F06D0214A536892
:1027700023F44043A1680B435360236813F0100F08
:1027800034D01C4A536823F48003E1680B43536040
:1027900000202CE00025BEE7174A136843F480733D
:1027A0001360FEF75BFE0646134B1B6813F4807F35
:1027B000B6D1FEF753FE801B6428F5D9032016E03E
:1027C000FEF74CFE06460B4B1B6A13F0020FC0D1FE
:1027D000FEF744FE801B41F288339842F3D9032070
:1027E00005E0D36923F08053D361BBE7002002B03A
:1027F00070BD00BF00100240007000400000424267
:1028000000B587B08446394B0FCB0DF1180E0EE999
:102810000F0040F20123ADF80430BCF1020F56D096
:10282000BCF1100F06D0BCF1010F2ED0002007B074
:102830005DF804FB2E4B5A68186810F08070F6D0D3
:10284000C2F3834318336B4413F8100C12F4803F27
:1028500017D0274B5B68C3F3404318336B4413F81E
:10286000142C244BB3FBF2F303FB00F0204B5B680A
:1028700013F4800FDBD140001F4BA3FB0030400856
:10288000D5E71E4B03FB00F0F0E7194B1B6A40F243
:1028900002321A40B2F5817F24D003F44073B3F5BD
:1028A000007F04D0B3F5407F09D00020BFE7104A75
:1028B000526A12F0020FF5D049F64040B7E70C4BD0
:1028C000186810F40030B2D04FF22440AFE7FFF7A1
:1028D000FBFE074B5B68C3F3813301335B00B0FB46
:1028E000F3F0A4E74FF40040A1E700BF88660008BA
:1028F0000010024000127A00ABAAAAAA00093D000B
:102900002DE9F04782B00546884617461E46FEF779
:10291000A5FD0A9B1B1A03EB0609FEF79FFD8246E5
:102920002B4B1B68C3F3CB3309FB03F301932B68D9
:102930009C6838EA04030CBF4FF0010C4FF0000C08
:10294000BC4540D0B6F1FF3FF1D0FEF787FDA0EBCC
:102950000A0048450AD2B9F1000F07D0019A02B126
:102960004A46019B013B01939146E0E72A68536880
:1029700023F0E00353606B68B3F5827F0BD0AB6A42
:10298000B3F5005F14D0012385F85130002385F89A
:102990005030032018E0AB68B3F5004F02D0B3F518
:1029A000806FECD12A68136823F040031360E6E7D8
:1029B0002A68136823F4005313602A68136843F4E9
:1029C00000531360DFE7002002B0BDE8F08700BFCE
:1029D0002800002010B582B004460B460092002269
:1029E0008021FFF78DFF08B902B010BD636D43F081
:1029F000200363650320F7E7002856D010B504468E
:102A0000436A33B94368B3F5827F05D00023C361BD
:102A100002E00023036143610023A36294F8513074
:102A2000002B3CD0022384F851302268136823F035
:102A300040031360636803F48273A26802F40442E3
:102A40001343E26802F400621343226902F00202B7
:102A50001343626902F001021343A26902F4007297
:102A60001343E26902F038021343226A02F0800243
:102A70001343A26A02F40052216813430B60638B74
:102A8000226803F0040353602268D36923F40063CF
:102A9000D36100206065012384F8513010BD84F8B3
:102AA00050302046FEF78CFABCE7012070472DE934
:102AB000F04383B01F460A9D90F85030012B00F080
:102AC0001081044688469146012380F85030FEF775
:102AD000C5FC064694F85130DBB26268012B0AD07F
:102AE000B2F5827F40F0E380A268002A40F0E980DE
:102AF000042B40F0E880B8F1000F00F0E680B9F157
:102B0000000F00F0E480002F00F0E38094F85130D3
:102B1000DBB2042B02D0052384F851300023636517
:102B2000C4F83890E787A787C4F83080E786A7867F
:102B30002364636423681A6812F0400F03D11A6893
:102B400042F040021A60E368B3F5006F11D0636889
:102B50000BB1012F0BD1226B236812781A73236BF0
:102B600001332363E38E9BB2013B9BB2E3860127D3
:102B70006BE063680BB1012F0BD1226B23681288C5
:102B8000DA60236B02332363E38E9BB2013B9BB27B
:102B9000E38601271CE023689A6812F0010F0ED02B
:102BA000E28F92B25AB1DA68A36B1A80A36B023338
:102BB000A363E38F9BB2013B9BB2E3870127FEF740
:102BC0004DFC801BA84203D3B5F1FF3F40F083804A
:102BD000E38E9BB21BB9E38F9BB2002B53D02368CB
:102BE0009A6812F0020FD6D0E28E92B2002AD2D0AA
:102BF000002FD0D0226B1288DA60236B023323635C
:102C0000E38E9BB2013B9BB2E3860027C3E72368B8
:102C10009A6812F0010F0ED0E28F92B25AB1DA68C0
:102C2000A36B1A70A36B0133A363E38F9BB2013BC9
:102C30009BB2E3870127FEF711FC831BAB4202D353
:102C4000B5F1FF3F49D1002D49D0E38E9BB213B9B6
:102C5000E38F9BB2BBB123689A6812F0020FD6D003
:102C6000E28E92B2002AD2D0002FD0D0226B1278FE
:102C70001A73236B01332363E38E9BB2013B9BB238
:102C8000E3860027C3E7324629462046FFF7A2FE27
:102C900048B9A36863B901932368DA6801929B6815
:102CA0000193019B04E020236365012000E00220E2
:102CB000012384F85130002384F8503003B0BDE87C
:102CC000F0830220F4E70220F2E70120F0E7012080
:102CD000EEE70120ECE70320EAE70320E8E7032022
:102CE000E6E70220EAE7000070B4036A23F001037C
:102CF0000362036A4668826922F073020C6844EA40
:102D0000020523F002028B6813430D4CA04209D048
:102D10000B4CA0420DD0466085614A684263036255
:102D200070BC704723F00803CA68134323F0040300
:102D3000EEE726F440764A6932438E691643EAE7A5
:102D4000002C014030B4036A23F480730362036AE9
:102D50004568C26922F073020C68224323F40073B1
:102D60008C6843EA04230F4CA04209D00D4CA042CA
:102D70000ED04560C2614A68C263036230BC7047CE
:102D800023F40063CC6843EA042323F48063EDE773
:102D900025F440554C6945EA04158C6945EA04154B
:102DA000E7E700BF002C014030B4036A23F48053EE
:102DB0000362036A4468C26922F4E6420D6842EA8B
:102DC000052223F400538D6843EA0533074DA842DA
:102DD00006D04460C2614A680264036230BC704736
:102DE00024F480444D6944EA8514F2E7002C014044
:102DF00010B4036A046A24F001040462846924F0B4
:102E0000F00C4CEA021223F00A030B4382610362C6
:102E100010BC704710B4046A24F010040462846982
:102E2000036A24F4704C4CEA023223F0A00343EA14
:102E300001138261036210BC7047836823F0700342
:102E40000B4343F0070383607047000090F83D3068
:102E5000DBB2012B27D1022380F83D300268D36812
:102E600043F00103D3600368114A934210D0B3F1D9
:102E7000804F0DD0A2F59432934209D002F58062C2
:102E8000934205D01A6842F001021A600020704790
:102E90009A6802F00702062A07D01A6842F0010277
:102EA0001A6000207047012070470020704700BF63
:102EB000002C01407047000003681B4A90420AD072
:102EC000B0F1804F07D0A2F59432904203D002F5C2
:102ED0008062904203D123F070034A681343124A80
:102EE00090420AD0B0F1804F07D0A2F594329042C0
:102EF00003D002F58062904203D123F44073CA6884
:102F0000134323F080034A69134303608B68C36251
:102F10000B688362044B984202D0012343617047DF
:102F20000B690363F9E700BF002C014040B310B503
:102F3000044690F83D30F3B1022384F83D30214639
:102F400051F8040BFFF7B8FF012384F8463084F8EA
:102F50003E3084F83F3084F8403084F8413084F8C3
:102F6000423084F8433084F8443084F8453084F8A3
:102F70003D30002010BD80F83C30FEF7C7F8DBE79D
:102F80000120704740B310B5044690F83D30F3B1CE
:102F9000022384F83D30214651F8040BFFF78CFFE3
:102FA000012384F8463084F83E3084F83F3084F8BA
:102FB000403084F8413084F8423084F8433084F85B
:102FC000443084F8453084F83D30002010BD80F84E
:102FD0003C30FFF76FFFDBE70120704730B4036A36
:102FE00023F010030362036A4468826922F4E64214
:102FF0000D6842EA052223F020038D6843EA051399
:103000000E4DA84209D00D4DA8420ED044608261F9
:103010004A688263036230BC704723F08003CD6846
:1030200043EA051323F04003EDE724F440644D69BF
:1030300044EA85048D6944EA8504E7E7002C0140F1
:1030400038B590F83C30012B60D004460D46012382
:1030500080F83C300C2A1AD8DFE802F00719191959
:103060001D1919193119191944000068FFF73CFEA0
:103070002268936943F0080393612268936923F0FF
:10308000040393612268936929690B4393610020CB
:1030900084F83C0038BD0068FFF7A0FF2268936900
:1030A00043F4006393612268936923F4806393611E
:1030B00022689369296943EA01239361E7E700687D
:1030C000FFF740FE2268D36943F00803D36122680A
:1030D000D36923F00403D3612268D36929690B43C0
:1030E000D361D4E70068FFF75FFE2268D36943F439
:1030F0000063D3612268D36923F48063D3612268BB
:10310000D369296943EA0123D361C0E70220C1E7FB
:1031100010B4846824F47F4C42EA03220A4342EA52
:103120000C02826010BC704790F83C30012B66D0D6
:1031300010B50446012380F83C30022380F83D306E
:103140000268936823F47F4323F0770393600B684E
:10315000602B40D022D8402B47D00BD9502B0ED11A
:10316000CA6849680068FFF743FE50212068FFF7EE
:1031700064FE04E0202B0CD008D9302B09D00123A9
:1031800084F83D30002084F83C0010BD0BB1102BBA
:10319000F5D119462068FFF750FEF0E7702B0ED0EE
:1031A000B3F5005FEBD1CB684A6889680068FFF728
:1031B000AFFF2268936843F480439360DFE7CB68F6
:1031C0004A6889680068FFF7A3FF2268936843F0A4
:1031D00077039360D3E7CA6849680068FFF71AFE6F
:1031E00060212068FFF729FEC9E7CA6849680068BE
:1031F000FFF7FEFD40212068FFF71FFEBFE702201A
:10320000704701F01F01012303FA01FC036A23EA5E
:103210000C030362036A02FA01F10B430362704775
:1032200010B50446084651BB94F83E30DBB2013B72
:1032300018BF0123002B5BD1002839D1022384F869
:103240003E30012201462068FFF7DBFF23682A4A4F
:1032500093423DD02368284A93423ED0B3F1804F39
:103260003BD0A2F59432934237D002F5806293426C
:1032700033D01A6842F001021A60002039E00429B4
:1032800008D008290DD094F84130DBB2013B18BFBB
:103290000123CFE794F83F30DBB2013B18BF012395
:1032A000C8E794F84030DBB2013B18BF0123C1E707
:1032B000042805D0082807D0022384F84130C0E74D
:1032C000022384F83F30BCE7022384F84030B8E79B
:1032D0005A6C42F400425A64BCE79A6802F0070252
:1032E000062A07D01A6842F001021A60002000E0A6
:1032F000012010BD0020FCE7002C014090F83C307C
:10330000012B2CD010B4012380F83C30022380F82C
:103310003D3003685A689C6822F0700C0A6842EAE3
:103320000C025A6003680F4A93420AD0B3F1804FEF
:1033300007D0A2F59432934203D002F58062934203
:1033400004D124F080044A6814439C60012380F86F
:103350003D30002380F83C30184610BC70470220F6
:10336000704700BF002C014090F83C30012B22D068
:10337000012380F83C30CB6823F440738A68134300
:1033800023F480634A68134323F400630A681343F9
:1033900023F480530A69134323F400534A69134307
:1033A00023F48043CA69134302685364002380F8FE
:1033B0003C3018467047022070470268D36823F0FB
:1033C000C003D360202380F83D3070470268D36883
:1033D00023F49073D3600268536923F001035361AF
:1033E000036B012B05D0202380F83E3000230363BC
:1033F00070470268D36823F01003D360F3E790F8B6
:103400003D30DBB2212B01D0022070478368B3F539
:10341000805F17D0036A5A1C02621A7803685A60E8
:10342000C38C9BB2013B9BB2C3844BB90268D36887
:1034300023F08003D3600268D36843F04003D36075
:10344000002070470369002BE4D1036A1B880268DF
:10345000C3F308035360036A02330362E0E700002A
:1034600010B504460268136923F44053C1680B4346
:10347000136183680269134342691A430168CB6888
:1034800023F4B05323F00C031343CB600268536959
:1034900023F4407381690B4353610268134B9A42D2
:1034A00020D0FFF701F9024602EB820202EB820212
:1034B00063689B00B2FBF3F20D48A0FB023149099F
:1034C000642303FB11231B013233A0FB03235B099D
:1034D00003F0F00202EB011203F00F032168134422
:1034E0008B6010BDFFF7F0F80246DDE700380140C1
:1034F0001F85EB512DE9F84305460F4616469946C0
:10350000DDF820802C68246837EA04030CBF4FF0F4
:10351000010C4FF0000CB4451FD1B8F1FF3FF1D0C2
:10352000B8F1000F05D0FDF799FFA0EB0900404569
:10353000E8D92A68D36823F4D073D3602A68536922
:1035400023F001035361202385F83D3085F83E3098
:10355000002385F83C30032000E00020BDE8F8831C
:1035600058B310B5044690F83D300BB3242384F8CB
:103570003D302268D36823F40053D3602046FFF720
:103580006FFF2268136923F4904313612268536923
:1035900023F02A0353612268D36843F40053D360B5
:1035A00000202064202384F83D3084F83E3010BD94
:1035B00080F83C30FDF788FED8E7012070472DE900
:1035C000F04182B01E4690F83D30DBB2202B54D142
:1035D00004460D469046002953D0002A53D090F857
:1035E0003C30012B51D0012380F83C300023036490
:1035F000212380F83D30FDF731FF0746A4F82480F1
:10360000A4F82680A368B3F5805F05D04FF00008CA
:10361000002384F83C3012E0236913B14FF0000816
:10362000F6E7A8460025F3E738F8023B2268C3F323
:1036300008035360E28C92B2013A92B2E284E38CC6
:103640009BB273B100963B46002280212046FFF7D3
:1036500051FFE0B9002DE7D015F8012B23685A601F
:10366000E8E700963B46002240212046FFF742FF54
:1036700078B9202384F83D3000E0022002B0BDE894
:10368000F0810120FAE70120F8E70220F6E70320A5
:10369000F4E70320F2E72DE9F04182B01E4690F8EE
:1036A0003E30DBB2202B5CD104460D46904600290B
:1036B0005BD0002A5BD090F83C30012B59D001231D
:1036C00080F83C3000230364222280F83E2003630C
:1036D000FDF7C4FE0746A4F82C80A4F82E80A3684A
:1036E000B3F5805F05D04FF00008002384F83C302C
:1036F00017E0236913B14FF00008F6E7A84600254C
:10370000F3E723685B68C3F3080328F8023B03E090
:1037100023685B682B700135E28D92B2013A92B258
:10372000E285E38D9BB2BBB100963B46002220218F
:103730002046FFF7DFFEF0B9002DE2D0A368B3F515
:10374000805FE5D013B92369002BE1D023685B6863
:1037500003F07F032B70DEE7202384F83E30002047
:1037600000E0022002B0BDE8F0810120FAE701206C
:10377000F8E70220F6E70320F4E7000038B590F8F8
:103780003D30DBB2202B31D10446002930D0002A55
:1037900030D090F83C30012B2ED0012380F83C3003
:1037A00001628284C28400250564212380F83D30B3
:1037B000436B12489862636B1148D862636B11487F
:1037C0001863636B5D6320681346021D606BFEF730
:1037D000EFF923686FF040021A6084F83C502268C9
:1037E000536943F080035361284600E0022038BD4E
:1037F0000120FCE70120FAE70220F8E70B38000877
:103800005738000865380008704708B50346406A15
:103810001B681B6813F0200F0CD10023C3840268BF
:10382000536923F0800353610268D36843F0400377
:10383000D36008BDFFF7E8FFFBE708B50168CA6879
:1038400022F04002CA60202280F83D20FFF7DCFF12
:10385000002008BD704708B5406AFFF7FBFF08BDB0
:103860007047704710B5446A23685A6994F83D3030
:10387000DBB2212B10D023685A6902F0400294F881
:103880003E30DBB2222B11D0236C43F010032364B3
:103890002046FFF7E6FF10BD02F08002002AEAD0C2
:1038A0000023E3842046FFF788FDE4E7002AEBD0FD
:1038B0000023E3852046FFF789FDE5E708B5406A68
:1038C0000023C385C384FFF7CCFF08BD704790F881
:1038D0003E30DBB2222B60D18368B3F5805F46D0E7
:1038E000826AB3F5805F04D0002B4DD10369002BB1
:1038F0004AD103685B681370836A01338362C38DA6
:103900009BB2013B9BB2C385002B48D100B583B06D
:103910000268D36823F02003D3600268D36823F4DD
:103920008073D3600268536923F00103536120233D
:1039300080F83E30036B012B2CD100230363026817
:10394000D36823F01003D36003681A6812F0100FD5
:1039500006D0002201921A6801925B680193019BD4
:10396000818DFFF7B3FF002003B05DF804FB02690F
:10397000002AB5D1826A03685B68C3F30803138029
:10398000836A02338362BAE703685B6803F07F03EC
:103990001370B1E7FFF764FFE5E7022070470020EE
:1039A0007047000030B583B0044602681368D068E1
:1039B000516913F00F0505D113F0200F02D010F05C
:1039C000200F19D12DB111F0010119D110F4907F00
:1039D00016D1216B012975D013F0800F03D010F0A0
:1039E000800F40F0D78013F0400F03D010F0400F4D
:1039F00040F0D48003B030BD2046FFF768FFF9E700
:103A000013F0010F06D010F4807F03D0226C42F037
:103A10000102226413F0040F04D019B1226C42F0A9
:103A20000202226413F0020F04D019B1226C42F09A
:103A30000402226413F0080F07D010F0200F00D109
:103A400019B1226C42F008022264226C002AD1D003
:103A500013F0200F02D010F0200F21D123685B69F2
:103A600003F04003226C12F0080F00D123B320466C
:103A7000FFF7ACFC23685A6912F0400F18D05A695E
:103A800022F040025A61A36B73B1464A5A63A06B9D
:103A9000FEF7EAF80028ADD0A06B436B9847A9E782
:103AA0002046FFF714FFD9E72046FFF7DAFEA1E72B
:103AB0002046FFF7D6FE9DE72046FFF7D2FE002303
:103AC000236497E713F0100F86D010F0100F83D007
:103AD000002301931368019353680193019B536979
:103AE00013F0400F32D0A16B0B685B689BB2002BC8
:103AF00080D0A08D98427FF67DAFE3858B69202B27
:103B000008D1A18DE38D9BB2C91A89B22046FFF777
:103B1000DDFE6FE7D36823F48073D36022685369B6
:103B200023F0010353612268536923F0400353617A
:103B3000202384F83E30002323632268D36823F0D7
:103B40001003D360A06BFEF76DF8DAE7A18DE38D6B
:103B50009BB2C91A89B2E38D9BB2002B3FF44AAFE6
:103B600000293FF447AFD36823F49073D3602268F1
:103B7000536923F001035361202384F83E3000236E
:103B800023632268D36823F01003D3602046FFF735
:103B90009DFE2FE72046FFF732FC2BE72046FFF77C
:103BA0004CFE27E7BD380008034681628285C28546
:103BB00000201864222283F83E2083F83C00196814
:103BC000CA6842F48072CA6019684A6942F0010208
:103BD0004A611A68D36843F02003D360704708B580
:103BE00090F83E30DBB2202B0DD171B17AB190F854
:103BF0003C30012B0DD0012380F83C3000230363BF
:103C0000FFF7D2FF00E0022008BD0120FCE7012001
:103C1000FAE70220F8E7000010B50B4C2046FFF74A
:103C200015F900212046FFF7FBFA04212046FFF793
:103C3000F7FA08212046FFF7F3FA01224FF400417A
:103C40000248FEF718FA10BD6C0A00200008014077
:103C5000024B1B6858639963DA6370476C0A002053
:103C60002DE9F0470446D0F830A04FF09B41C06AE0
:103C7000FCF7C0FDFCF784FF0146A54802F04CF8B4
:103C800005464FF09B41206BFCF7B4FDFCF778FF35
:103C900001464FF0006002F03FF8281A02F0D4F815
:103CA00006464FF09B41E06AFCF7A4FDFCF768FF75
:103CB0000146984802F030F805464FF09B41206BD2
:103CC000FCF798FDFCF75CFF01464FF0006002F046
:103CD00023F8281A02F0B8F8074600215046FCF7EE
:103CE00045FF002862D0012500213046FCF73EFF49
:103CF00008B10235EDB200213846FCF737FF08B1B4
:103D00000435EDB2DFF810924FF06151484601F0F2
:103D1000EBFF4FF4C01101F09FFF80464FF0904140
:103D20005046FCF767FDFCF72BFF0146404601F0CB
:103D3000DBFF02F053F880464FF06151484601F036
:103D4000D3FF4FF4C01101F087FF824607F1004016
:103D50004FF09041FCF74EFDFCF712FF0146504634
:103D600001F0C2FF02F03AF807464FF061514846B1
:103D700001F0BAFF4FF4C01101F06EFF814606F169
:103D800000404FF09041FCF735FDFCF7F9FE01468D
:103D9000484601F0A9FF02F021F806466B1E052BEC
:103DA0005BD8DFE803F00855054A464F00259BE73E
:103DB00000F10046474631465848FCF711FC3946A9
:103DC000FCF70EFC4FF09041FCF714FDFCF7D8FE19
:103DD0004FF4002101F040FF02F000F880464FF060
:103DE00090413046FCF706FDFCF7CAFE4FF48021F7
:103DF00001F032FF01F0F2FF4146FCF7F3FB06460B
:103E00004FF090413846FCF7F5FCFCF7B9FE4FF453
:103E1000802101F021FF01F0E1FF3146FCF7E2FBD8
:103E20000746013D052D6DD8DFE805F02D5F1A46E8
:103E30003A5207F100474646BDE708F100480746F9
:103E40004646B8E707F1004300F100471E46B2E7D7
:103E500008F100483E464746ADE700273E46AAE740
:103E60004046FCF78DFE60633046FCF789FEA06398
:103E70003846FCF785FEE063E26BA16B606BFFF7F1
:103E8000E7FEBDE8F0873046FCF77AFE6063404607
:103E9000FCF776FEA0633846FCF772FEE063EBE7C2
:103EA000FCF76EFE60634046FCF76AFEA063304696
:103EB000FCF766FEE063DFE7FCF762FE6063304616
:103EC000FCF75EFEA0634046FCF75AFEE063D3E7D2
:103ED0003046FCF755FE60633846FCF751FEA063A0
:103EE0004046FCF74DFEE063C6E74046FCF748FE5F
:103EF00060633846FCF744FEA0633046FCF740FEA2
:103F0000E063B9E700236363A363E363B4E700BF3F
:103F1000703DDB0D90C224F2CF7603000000E14536
:103F200010B5044600F06CF82046FFF799FE10BD6E
:103F300038B50446074B1D6CC564586C0146FCF748
:103F400051FB01462846FCF74DFB0349FCF706FDF3
:103F5000206538BD08090020D7B3DD3F70B50446A1
:103F6000C56C4FF09B410069FCF744FCFCF708FE70
:103F700001F016FE01F068FF01462846FCF73AFC06
:103F80000546266D4FF09B412069FCF733FCFCF79A
:103F9000F7FD01F0C9FE01F057FF01463046FCF77E
:103FA00029FC01462846FCF71DFBA065E56C05F1E0
:103FB00000454FF09B412069FCF71CFCFCF7E0FD3D
:103FC00001F0B2FE01F040FF01462846FCF712FC6A
:103FD0000546266D4FF09B412069FCF70BFCFCF772
:103FE000CFFD01F0DDFD01F02FFF01463046FCF76B
:103FF00001FC01462846FCF7F5FA606570BD00003B
:10400000F8B505464FF09B410069FCF7F3FBFCF760
:10401000B7FD01F0C5FD06462B4C4FF09B41606F8C
:10402000FCF7E8FBFCF7ACFD0146304601F074FEFE
:1040300006464FF09B412869FCF7DCFBFCF7A0FD2E
:1040400001F072FE07464FF09B41D4F89400FCF754
:10405000D1FBFCF795FD0146384601F05DFE301AB4
:1040600001F0F2FEE0624FF09B412869FCF7C2FBD1
:10407000FCF786FD01F058FE06464FF09B41606F4D
:10408000FCF7B8FBFCF77CFD0146304601F044FE2E
:1040900006464FF09B412869FCF7ACFBFCF770FD2E
:1040A00001F07EFD05464FF09B41D4F89400FCF7EB
:1040B000A1FBFCF765FD0146284601F02DFE3044CA
:1040C00001F0C2FE2063F8BD08090020F8B50446DF
:1040D000816D4166806AA066FCF782FA0546E0665B
:1040E0004FF09741E06DFCF785FB0646216F2846AF
:1040F000FCF776FA4FF09741FCF77CFBFCF740FDAC
:1041000005463046FCF73CFD294601F0FDFD01F077
:1041100089FE05464FF09741206EFCF76BFB074682
:104120004FF09741E06EFCF765FBFCF729FD064672
:104130003846FCF725FD314601F0E6FD01F072FE40
:1041400001462846FCF74EFA616FFCF74BFA6067B0
:10415000E36E2367A56F2946FCF708FD00B165678C
:1041600005F100452946606FFCF7E2FC00B1656788
:10417000F8BDF8B50446416DC0F88410406AC4F833
:104180008800FCF72DFA0546C4F88C004FF09741E3
:10419000E06FFCF72FFB0646D4F890102846FCF79A
:1041A0001FFA4FF09741FCF725FBFCF7E9FC0546A9
:1041B0003046FCF7E5FC294601F0A6FD01F032FE91
:1041C00005464FF09741D4F88000FCF713FB0746F3
:1041D0004FF09741D4F88C00FCF70CFBFCF7D0FCB7
:1041E00006463846FCF7CCFC314601F08DFD01F067
:1041F00019FE01462846FCF7F5F9D4F89410FCF7AF
:10420000F1F9C4F89400D4F88C30C4F89030D4F8A4
:1042100098502946FCF7AAFC08B1C4F8945005F15F
:1042200000452946D4F89400FCF782FC08B1C4F894
:104230009450F8BDF8B504468169C0F8A410C0696F
:10424000C4F8A800FCF7CCF90546C4F8AC004FF060
:104250009741D4F89C00FCF7CDFA0646D4F8B0108C
:104260002846FCF7BDF94FF09741FCF7C3FAFCF77D
:1042700087FC05463046FCF783FC294601F044FDE7
:1042800001F0D0FD05464FF09741D4F8A000FCF7AF
:10429000B1FA07464FF09741D4F8AC00FCF7AAFA00
:1042A000FCF76EFC06463846FCF76AFC314601F026
:1042B0002BFD01F0B7FD01462846FCF793F9D4F831
:1042C000B410FCF78FF9C4F8B400D4F8AC30C4F8DB
:1042D000B030D4F8B8502946FCF748FC08B1C4F80F
:1042E000B45005F100452946D4F8B400FCF720FC91
:1042F00008B1C4F8B450D4F8B43063620023A362A8
:10430000F8BD0000F8B504464168C0F8C8108068E0
:10431000C4F8CC00FCF764F905464949FCF726FCD3
:10432000002876D047492846FCF75AF90546C4F8D4
:10433000D0504FF09241D4F8BC00FCF75BFA06462F
:104340004FF092412846FCF755FAFCF719FC054658
:104350003046FCF715FC294601F0CEFC01F050FD7B
:1043600005464FF09241D4F8C400FCF743FA0746E3
:10437000D4F8D410D4F8D000FCF732F94FF09241C1
:10438000FCF738FAFCF7FCFB06463846FCF7F8FB6E
:10439000314601F0B1FC01F033FD01462846FCF73F
:1043A00021F905464FF09241D4F8C000FCF722FAFB
:1043B00007464FF09241D4F8E000FCF71BFAFCF7F7
:1043C000DFFB06463846FCF7DBFB314601F094FC88
:1043D00001F016FD01462846FCF704F90546C4F82D
:1043E000D800D4F8D010C4F8D410D4F8E000FCF70A
:1043F000F9F8C4F8E000D4F8DC6031462846FCF750
:10440000B5FB90B1C4F8D860D4F8D8200E4BDA616F
:10441000F8BD0E492846FCF78BFB002887D00949D8
:104420002846FCF7DFF8054681E706F100463146ED
:104430002846FCF77DFB0028E6D0C4F8D860E3E707
:10444000000034430000B44308090020000034C3D6
:104450004FF07E53836700234367C3660367436659
:1044600083661F4A02661F49C1651F49C0F898103C
:10447000C0F89430C0F88C30C0F89030C0F8843068
:10448000C0F88830C0F88020C267C0F8B810C0F803
:10449000B430C0F8AC30C0F8B030C0F8A430C0F8C8
:1044A000A830124AC0F8A020114AC0F89C20C0F8D9
:1044B000E0304FF08142C0F8DC20C0F8D830C0F8BE
:1044C000D030C0F8D430C0F8C830C0F8CC30094A79
:1044D000C0F8C420C0F8C030074BC0F8BC307047EB
:1044E0000AD7A33D0AD7233D00004040BC7493BCCB
:1044F000666666BFCDCC0C40CDCC4C3E00000000C3
:10450000F8B50446013906295DD8DFE811F0070047
:1045100027004D00790099009D00CA007C4BC0F82F
:1045200098307C4A13680133136040F6FE72934260
:1045300049DD784B00221A60C56977492846FCF7A7
:10454000EDFA10B1754BE3613DE074492846FCF784
:10455000E5FA002837D0704BE36134E06C4BC0F8CB
:1045600098306C4A13680133136040F2FE22934284
:1045700029DD684B00221A604FF400516848FDF7AE
:1045800073FD28B96749E069FCF72CF8E0611AE08F
:104590004FF480416248FDF767FDA0B96149E069C9
:1045A000FCF71EF8E0610EE04FF08043C0F8983051
:1045B000584A13680133136040F2FE22934203DC31
:1045C0002046FFF79FFEF8BD524B00221A604FF4C1
:1045D00000515348FDF748FD28B95349A068FCF73E
:1045E00001F8A060ECE74FF480414D48FDF73CFD39
:1045F0000028E5D14C49A068FBF7F2FFA060DFE797
:104600004FF08043C0F89830D0F8D0504649284643
:10461000FCF7A2FA40B14549A068FBF7E1FFA060B2
:104620002046FFF76FFECEE741492846FCF78AFA9D
:104630000028F5D03D49A068FBF7D4FFA060EFE764
:104640003C4BC0F89830BEE74FF08043C0F898303C
:10465000D0F89450384B19682846FBF7C1FFFBF798
:10466000DBFE06460F4626A3D3E90023FBF7A0FF97
:1046700038B925A3D3E9002330463946FBF78EFF2E
:1046800010B1244B01221A60224B1B68012B02D06F
:10469000294B1D6097E71F4B00221A60A369E36155
:1046A000F6E7456821492846FCF756FA40B1234908
:1046B0002846FCF747FA18B11E4BC4F8983082E739
:1046C0001A492846FCF734FA80B91C492846FCF7F9
:1046D0004DFA00283FF477AF4FF07F53C4F898307D
:1046E000164BA3602046FFF70DFE6CE74FF07F539B
:1046F000C4F898300D4BA3602046FFF703FE62E735
:104700009A9999999999A93F9A9999999999A9BF2B
:10471000CDCCDC40400B0020000040C000004040F9
:1047200000100140CDCCCC3D000034420000B4422A
:10473000000034C29A99993E440B00200000874340
:10474000002301E0434040080028FBD103F00100B2
:104750007047000000B587B0ADF80E0000220121BF
:104760000D48FDF788FC4FF47A73009301230DF197
:1047700016020DF10E010948FEF799F910B1002358
:10478000ADF81630012211460348FDF774FCBDF860
:10479000160007B05DF804FB000C0140100A002071
:1047A00070B504464668124B1E60124B19683046BD
:1047B000FBF716FF1049FCF7D1F81049FCF71AF87F
:1047C0000E49FCF717F80546A0610D49FCF7CEF934
:1047D00020B90C492846FCF7ABF910B10A4B1B680D
:1047E000A361044B1E60A269074B1A6070BD00BF35
:1047F0005C0B0020540B00200000B443000070420A
:1048000000007A4400007AC4580B002038B50446F2
:1048100040F480452846FFF793FF012809D0284639
:10482000FFF798FF4FF48040FFF794FFC0F30D00AF
:1048300038BD44F44045F2E770B5054643F6FE70D6
:10484000FFF7E4FF224B1860FBF77CFF2149FBF7E1
:10485000D1FF4FF06251FBF7CDFF6969FBF7C0FE56
:104860001D4B186005E01B492046FBF7BBFE1A4BA9
:104870001860194B1C6800212046FCF759F90028E4
:10488000F1D121461348FBF7ABFE0646124B1860E8
:104890002868FBF75BFF01463046FBF7ABFF0F4B89
:1048A000186005E00B492046FBF79AFE0B4B186099
:1048B0000A4B1C6807492046FCF758F90028F1D13B
:1048C0006E60EC6006492046FBF794FF286170BDDE
:1048D000500B00200000B443480B00204C0B00207C
:1048E00035FA8E3C10B5054C2046FDF729F802221A
:1048F00003492046FCF7DCFE10BD00BF90080020F5
:10490000600B002070B50546154A1388A3F50063B7
:1049100018B2144B18805488C4F5006424B25C802B
:10492000FBF714FF1049FBF765FF4FF07F51FBF7D2
:1049300061FF0646A8642046FBF708FF0A49FBF71B
:1049400059FF4FF07F51FBF755FF0446286431466D
:104950000020FBF745FE2146FBF742FE686470BD70
:10496000600B0020640B00203128D33A08B5054BBA
:104970001860054B1868002302221946806800F071
:10498000D5F808BD680B00203400002010B50138B0
:1049900001280AD814464FF0FF3392B20748006846
:1049A000FEF70DFE40B9204610BD00F043F8092384
:1049B00003604FF0FF30F7E70520F5E7680B0020B4
:1049C000022801D80020704708B500F033F8092309
:1049D00003604FF0FF3008BD08B500F02BF8092345
:1049E00003604FF0FF3008BD08B548B94FF0FF3302
:1049F000012208480068FEF74EFE40B9012008BDBC
:104A000000F018F8092303604FF0FF30F7E70520A6
:104A1000F5E700BF680B002008B5022804D84FF462
:104A200000534B60002008BD00F004F80923036028
:104A3000F8E70000014B1868704700BF3400002001
:104A400070B50D4E0D4D761BB61006D0002455F8EE
:104A5000043B01349847A642F9D1094E094D01F0B3
:104A600093F8761BB61006D0002455F8043B0134A9
:104A70009847A642F9D170BDA0660008A06600085C
:104A8000A8660008A0660008830730B548D0541E09
:104A9000002A3FD00346CAB201E0013C3AD303F8F2
:104AA000012B9D07F9D1032C2DD9CDB245EA05255F
:104AB0000F2C45EA054536D9A4F1100222F00F0C5F
:104AC00003F1200EE6444FEA121C03F1100242E902
:104AD000045542E9025510327245F8D10CF1010239
:104AE00014F00C0F03EB021204F00F0C13D0ACF116
:104AF000040323F003030433134442F8045B93429A
:104B0000FBD10CF003042CB1CAB21C4403F8012BF6
:104B10009C42FBD130BD64461346002CF4D1F9E72A
:104B200003461446BFE71A46A446E0E72DE9F043E2
:104B3000694C0E46D4F80080174604461D4683B0E3
:104B4000B8F1000F03D0D8F83830002B77D0022FFF
:104B500005D0012F00F2AC80002DC0F2A980636E59
:104B6000DA0752D52146404600F05AF9216B41B18F
:104B700004F14003994202D0404600F07DFA002340
:104B800023630023B4F90CC0A3611CF0800F6360A1
:104B900064D12CF44A6C2CF0030C022FA4F80CC046
:104BA0006AD001AB214640466A4600F091FBA389DA
:104BB0001843A081002D2FD0002E2ED0D8F83830E9
:104BC000002B38D0009BC4E90465AB42B4F90C302B
:104BD00026601CBF43F40063A381012F04BF43F090
:104BE0000103A3819AB213F008032CD0D1075DD53D
:104BF00000216D42A561656EA16015F0010527D009
:104C00000025284603B0BDE8F083A3899B05A9D4FD
:104C1000A06D00F059FBA5E7009D284600F088FB39
:104C20000646002847D0A38943F08003A381D8F823
:104C30003830002BC6D1404600F026F9C2E7404686
:104C400000F022F983E7A360656E15F00105D7D166
:104C5000930524D5284603B0BDE8F083404621697A
:104C600000F00AFAB4F90CC0022F2CF44A6C2CF0B4
:104C7000030CA4F80CC094D100250021012204F1FA
:104C8000430323602361636E4CF0020CD807A4F841
:104C90000CC0A1606261DDD41CF4007FDAD1A06D8C
:104CA00000F014FB284603B0BDE8F083A560CBE715
:104CB0004FF0FF35CEE7DDF80090A94504D0484617
:104CC00000F036FB064620B94FF0FF35B4F90CC0B2
:104CD000D3E74D46A7E700BF34000020024B13B1D5
:104CE000024800F005B8704700000000AD4F000812
:104CF000002301461A46184600F048BEB1F90C20C0
:104D0000F8B50C461107074643D4636842F40062C5
:104D1000002BA2815BDDA56A002D56D000233E68E2
:104D20003B6093B212F4805255D101233846E169B9
:104D3000A847421C65D0A389A56A5B0705D56368AF
:104D4000C01A236B0BB1E36BC01A0246E169002362
:104D50003846A847411C40D13B68002B3DD01D2B55
:104D600001D0162B54D10022A38923F40063A38120
:104D70002369C4E90032216B3E6031B304F1400382
:104D8000994202D0384600F077F900231846236391
:104D9000F8BD2669CEB193B29A0718BF00232568E3
:104DA00008BF63692660AD1BA3600CE02B4632464A
:104DB000D4F824C03846E169E047B0F1000CA5EB17
:104DC0000C05664416DD002DF0DC0020F8BDE36B19
:104DD000002BA0DCF9E7206DAFE70022B4F90C301E
:104DE000626023F400632269A381DB042260C2D5E0
:104DF0002065C0E7A3894FF0FF3043F04003A38153
:104E0000F8BD3B68002B96D01D2B06D0162B04D086
:104E1000A38943F04003A381F8BD00203E60F8BDA4
:104E200038B505460C4608B1836BA3B1B4F90C0044
:104E3000B8B1636EDB0701D4810515D5284621463C
:104E4000FFF75CFF636E0546DA0702D4A3899B0572
:104E50000ED5284638BD00F017F8B4F90C0000282C
:104E6000E7D10546284638BDA06D00F02DFAE5E7EC
:104E7000A06D00F02BFA284638BD00BF014900F0B4
:104E8000FBB900BF3D5A00082DE9F047824639487A
:104E900000F01AFADAF83840002C66D10423032215
:104EA0003549DAF80450CAF83C10DFF8D090DFF842
:104EB000D080344F344E0AF53B71CAE9B921CAF8A3
:104EC000E0422146EB600822C5E90044C5E90444FC
:104ED0006C66AC60AC6105F15C00FFF7D5FDC5E91F
:104EE0000759C5E90987EE6205F1580000F0E8F9B5
:104EF000DAF80850254B2146EB600822C5E900444A
:104F0000C5E904446C66AC60AC6105F15C00FFF778
:104F1000BBFDC5E90759C5E90987EE6205F15800EF
:104F200000F0CEF9DAF80C50194B2146EB6008225C
:104F3000C5E90044C5E904446C66AC60AC6105F1A8
:104F40005C00FFF7A1FD05F15800C5E90759C5E967
:104F50000A76C5F8248000F0B3F901230548CAF8A1
:104F60003830BDE8F04700F0B1B90248BDE8F0477D
:104F700000F0ACB9780B00207D4E0008D558000831
:104F8000F95800083959000859590008090001006A
:104F900012000200014800F097B900BF740B002016
:104FA000014800F093B900BF740B002038B5084BDE
:104FB000084D5B1B9C1007D0043B1D44013C55F879
:104FC00004399847002CF9D1BDE8384000F0E2BD23
:104FD000AC660008A8660008F8B50C46234F0646E4
:104FE00000F05AFCBB685D68C4F57E6325F00305DC
:104FF0000F332B4423F47F6323F00F03A3F5805476
:10500000B4F5805F07DB0021304600F051FCBB683F
:105010002B44984204D0304600F044FC0020F8BDF8
:105020003046614200F044FC01300DD0104ABB68AC
:105030002D1B45F001055D60136830461B1B136096
:1050400000F030FC0120F8BD0021304600F030FCBB
:10505000BA68831A0F2BDEDD43F001035360054B62
:1050600003491B68C01A0860D5E700BF640400202C
:105070007C0B00206C08002000295ED0F8B50C469F
:10508000064600F009FC54F8042C784FA4F10805FA
:1050900022F001016818D7F808C04368844523F05E
:1050A000030300F08780D207436034D454F8082CFF
:1050B00007F10804AD1A1144AA68A24268D000EBB7
:1050C000030CDCF804E0D5F80CC01EF0010FC2F8A8
:1050D0000CC0CCF8082000F0918041F001036B6017
:1050E0000160B1F5007F31D24A09CB08012191401E
:1050F0007A6801331143796007EBC30257F8331024
:10510000083AC5E9021247F83350CD603046BDE891
:10511000F84000F0C7BBC2185268D2070ED4194439
:1051200007F108048368A34270D0C268DA60936014
:1051300041F001036B606950D3E7704741F0010310
:10514000B1F5007F44F8043C0160CDD3B1F5206F88
:105150004FEA512347D28B0903F1390003F138029A
:10516000C300F818FB580838984258D05A6822F003
:1051700003028A4202D99B689842F7D1D868C5E9F0
:10518000023085603046DD60BDE8F84000F08ABB43
:10519000C2185268D20763D40B44D0E90212CA6025
:1051A000916043F001026A603046EB50BDE8F84080
:1051B00000F078BB0B44D10707D454F8082CAD1A83
:1051C0001344D5E90212CA60916043F001026A609B
:1051D000274ABD6012689A4298D8264B3046196813
:1051E000FFF7FAFE92E7142B0AD9542B1FD80B0BAA
:1051F00003F16F0003F16E02C300B2E7194491E7B7
:1052000003F15C0003F15B02C300AAE741F0010374
:10521000C7E90455C5E902446B60695076E701218E
:10522000921001FA02F279680A437A60A7E7B3F5AF
:10523000AA7F06D8CB0B03F1780003F17702C300F5
:105240008FE740F25452934206D88B0C03F17D0055
:1052500003F17C02C30084E74FF47E737E2280E773
:1052600041F001036B60016050E700BF640400205F
:1052700070080020AC0B00202DE9F8434FF0000926
:105280000746884600F53876D6E90154013D10D42A
:10529000A389013D012B08D9B4F90E30013304D0A4
:1052A00021463846C04749EA00096B1C04F16804EE
:1052B000EED13668002EE7D14846BDE8F88300BF3E
:1052C000704700BF704700BF704700BF704700BF06
:1052D00070B50C46B1F90E10154600291E4696B061
:1052E00014DB6A4600F010FC00280FDB019A4FF433
:1052F000806302F47042A2F50052B2FA82F24FF4D7
:105300000060520932602B6016B070BD0023B4F902
:105310000C10336011F0800004D0402218462A603F
:1053200016B070BD4FF480632B6016B070BD00BF27
:10533000024B0146186800F003B800BF340000209B
:105340002DE9F04F01F10B05162D064683B025D847
:10535000102900F2B88000F09FFA102518224FF0B3
:10536000020CB54F3A445368A2F108018B4200F099
:10537000B7805A68D96822F003021A449C68304604
:10538000E1608C60516803F1080441F00101516053
:1053900000F088FA204603B0BDE8F08F35F007052D
:1053A00000F19180A94200F28E8000F075FAB5F507
:1053B000FC7FC0F094816B0A00F08C80042B00F21B
:1053C0006A81AB0903F1390C03F138044FEACC00D0
:1053D000994F384443680838984206D10CE00029B8
:1053E00080F22681DB68984206D05A6822F00302D8
:1053F000511B0F29F3DDA4463C69DFF840E27445F8
:105400007AD0626822F00302531B0F2B00F37681DF
:10541000002BC7E904EE80F26781B2F5007F80F0CF
:1054200019810121D30852090B4491407A6857F839
:1054300033000A4307EBC3010839A060E1607A60DA
:1054400047F83340C46001214FEAAC0399409142D0
:1054500059D8114206D12CF0030C490011420CF12D
:10546000040CFAD007EBCC0948466446D0F80C800F
:10547000404508D11CE1002B80F22181D8F80C8036
:10548000404500F01581D8F8042022F00302531B98
:105490000F2BF0DD08EB050145F00105C8F80450BD
:1054A0003046D8E90264F460A66043F00104C7E91D
:1054B00004114C60C1E902EE48F8023000F0F2F944
:1054C00008F1080402E00C2300243360204603B0F6
:1054D000BDE8F08F4FF400704FF0400C3F2477E7A9
:1054E000D3689A4208BF0CF1020C7FF442AF3C69CA
:1054F000DFF848E1744584D101217A684FEAAC03B2
:1055000099409142A5D9BC68636823F003094D45D1
:1055100003D8A9EB05030F2B7ADCDFF824B1494B44
:10552000DBF800201B6801322B4404EB090A00F071
:105530002F8103F580530F3323F47F6828F00F0881
:105540004146304600F0B4F9411C024600F0EF80BD
:10555000824500F2EA803C4B1968414408461960D4
:1055600000F04981DBF80010019301311BBFA2EB71
:105570000A0A5044CBF80020186012F0070B00F024
:105580001181CBF108010A44CBF5805190440831D8
:10559000A1EB0801C1F30B0A51463046009200F01E
:1055A00087F9421CDDE9002300F04B81801A00EBF3
:1055B0000A08196848F001005144BC42BA601960F9
:1055C000506000F02481B9F10F0F40F222814FF0BA
:1055D000050E6068A9F10C0C2CF0070C00F001001E
:1055E00040EA0C006060BCF10F0F04EB0C00C0E956
:1055F00001EE00F22E8114465068144B1A688A425C
:1056000038BF1960124B1A688A4238BF196090E09F
:10561000621943F0010345F0010565603046BA6048
:105620000834536000F03EF9204603B0BDE8F08F27
:10563000D9681A44A2E600BF640400206C0400206C
:105640006C080020AC0B00207C0B0020A40B002079
:10565000A80B0020B2F5206F4FEA52235FD3142B22
:1056600000F2B18003F15C01C9005B33781879580E
:105670000838884200F08F804B6823F00303934280
:1056800002D989688842F7D1C8687A68C4E90210EB
:105690008460CC60D7E6142B59D9542B00F29B8040
:1056A0002B0B03F16F0C03F16E044FEACC008FE675
:1056B0000134A30700F108007FF4D8AE53E044465C
:1056C00042445368D8F80C1043F00103536054F877
:1056D000083F3046D9608B6000F0E4F8F6E64FEA08
:1056E000D50C05F108023CE622445368304643F0ED
:1056F0000103536000F0D6F80834E7E6611945F07D
:105700000105656043F00105C7E904113046C1E9B0
:1057100002EE4D60A35000F0C5F80834D6E69309B8
:1057200003F13901C9003833A0E7BC425ED0BC6840
:10573000606820F003084545A8EB050302D80F2B4D
:105740003FF766AF304600F0ADF80024BEE603F147
:105750005C0C03F15B044FEACC0039E659F80839D8
:105760004B4540F095801CF0030F0CF1FF3CF5D148
:105770007B6823EA01037B60490099423FF6C3AE90
:1057800011B9C0E6490004341942FBD0A44669E6C9
:1057900003F11008D4E601229B109A407B681A435B
:1057A0007A6073E702EB08014942C1F30B0A5146E4
:1057B0003046009200F07CF8431CDDE900237FF4C2
:1057C000F5AEDA46F5E6542B26D8130B03F16F013C
:1057D000C9006E334AE7B3F5AA7F26D8EB0B03F175
:1057E000780C03F177044FEACC00F1E5294B1868F7
:1057F00040441860B6E6CAF30B0CBCF1000F7FF40E
:10580000B1AEBC68C84448F001006060F5E61446DB
:10581000F3E60123536095E7B3F5AA7F24D8D30BB1
:1058200003F17801C900773320E740F254529342E4
:1058300024D8AB0C03F17D0C03F17C044FEACC00BF
:10584000C6E5ABF1080BD8444FF0000AA8EB0208FC
:10585000AFE604F1080130460093FFF70DFCBC6889
:10586000009B60681968C8E640F254518B420BD81F
:10587000930C03F17D01C9007C33F7E64FF47E7091
:105880004FF07F0C7E24A3E54FF47E717E23EDE67E
:105890007B6871E77C0B00200148FFF715BD00BF56
:1058A000700B00200148FFF711BD00BF700B0020F6
:1058B000002238B5064D044608462A60FBF700FC76
:1058C000431C00D038BD2B68002BFBD0236038BDB3
:1058D000B00B002010B50C46B1F90E1000F03EF9E7
:1058E000002803DB236D0344236510BDA38923F443
:1058F0008053A38110BD00BF2DE9F0410C46B1F9E2
:105900000C101F46CB05054616460BD421F48051DA
:10591000A1813B4632462846B4F90E10BDE8F0415D
:1059200000F01EB8B4F90E100223002200F000F9B6
:10593000B4F90C10EAE700BF10B50C46B1F90E102F
:1059400000F0F6F8A389421C0EBF23F4805343F401
:1059500080532065A38110BDB1F90E1000F05CB832
:1059600038B50C46114600228446074D20462A6071
:105970001A466446FFF70AF8431C00D038BD2B686E
:10598000002BFBD0236038BDB00B00202DE9F04781
:10599000DFF87CA00646DAF8000098460F469146EC
:1059A000FFF792FC1B4B1B68D3F8484124B3656892
:1059B0001F2D26DC5EB96B1C0235DAF8000063602F
:1059C00044F82570FFF782FC0020BDE8F087012332
:1059D00004EB8501C1F88890D4F88821AB401A43C4
:1059E000022EC4F88821C1F80881E4D1D4F88C21B2
:1059F0001343C4F88C31DEE703F5A674C3F84841BD
:105A0000D5E7DAF80000FFF761FC4FF0FF30DCE784
:105A1000600400209C660008002238B5064D04464C
:105A200008462A60FEF7CCFF431C00D038BD2B6827
:105A3000002BFBD0236038BDB00B002070B50029CF
:105A40004BD006460C4610B1836B002B48D0636EDA
:105A5000D80734D5B4F90C30002B3ED0214630465F
:105A6000FFF74CF9E36A054633B13046E1699847E0
:105A70000028B8BF4FF0FF35A3891A063BD4216B2D
:105A800041B104F14003994202D03046FFF7F4FAE5
:105A900000232363616C21B13046FFF7EDFA002348
:105AA0006364FFF777FA0022636EA281DB0727D5D4
:105AB000A06DFFF707FCFFF773FA284670BDA389B6
:105AC0009905CBD4A06DFFF7FFFBB4F90C30002B88
:105AD000C4D1656E15F0010508D00025284670BDBB
